:100000000C942A000C9447000C9447000C94470071
:100010000C9447000C9447000C9447000C94470044
:100020000C9447000C9447000C9447000C94470034
:100030000C9447000C9447000C9447000C94470024
:100040000C9447000C9447000C9447000C94470014
:100050000C94470011241FBECFE5D8E0DEBFCDBF12
:1000600010E0A0E6B0E0E8EAF5E502C005900D92E8
:10007000A03AB107D9F710E0A0EAB0E001C01D92A4
:10008000A13AB107E1F70E94D3280C94D22A0C942C
:100090000000EF92FF920F931F937B018C0120E0F1
:1000A00030E040E05FE40E94F50388238CF0C80153
:1000B000B70120E030E040E05FE40E94C1010E940F
:1000C00055049B01AC01205030404040504806C0D0
:1000D000C801B7010E9455049B01AC01B901CA01D6
:1000E0001F910F91FF90EF900895A0E0B0E0EBE733
:1000F000F0E00C949B2ADC012B01FA019C919230D8
:1001000008F439C1EB018881823008F433C194309E
:1001100069F4843009F02FC111969C91119789815F
:10012000981709F428C1A6E7B0E025C1843009F486
:1001300021C18230A9F4923009F01DC19A01AD01AC
:1001400088E0EA010990AE01E90109929E0181501F
:10015000C1F7E201898111969C918923818308C1AD
:10016000923009F407C112962D903C901397EB0141
:100170008A819B811496AD90BD90CD90DC901797AD
:10018000EC80FD800E811F819101281B390BB90184
:1001900037FF04C066277727621B730B6032710537
:1001A0000CF061C0121613066CF537014801062EDB
:1001B00004C096948794779467940A94D2F721E0C8
:1001C00030E040E050E004C0220F331F441F551FB1
:1001D0006A95D2F721503040404050402E213F21B7
:1001E00040235123211531054105510521F021E01E
:1001F00030E040E050E079018A01E628F72808293C
:1002000019293CC0232BD1F1260E371E350146019A
:10021000062E04C096948794779467940A94D2F734
:1002200021E030E040E050E004C0220F331F441FC3
:10023000551F6A95D2F721503040404050402A2146
:100240003B214C215D21211531054105510521F04E
:1002500021E030E040E050E059016A01A628B728CB
:10026000C828D9280BC0821593052CF01C01AA249C
:10027000BB24650103C0EE24FF24870111969C91E5
:10028000D20111968C91981709F445C0992339F041
:10029000A80197012A193B094C095D0906C0A6016E
:1002A00095012E193F09400B510B57FD08C01182D3
:1002B0003382228224833583468357831DC081E0A5
:1002C00081833382228288279927DC01821B930B4A
:1002D000A40BB50B84839583A683B7830DC0220F2F
:1002E000331F441F551F24833583468357838281E0
:1002F000938101979383828324813581468157813D
:10030000DA01C9010197A109B1098F5F9F4FAF4F72
:10031000BF4328F30BC0918333822282EA0CFB1C7B
:100320000C1D1D1DE482F5820683178383E0808304
:10033000248135814681578157FF1AC0C901AA27F8
:1003400097FDA095BA2F81709070A070B0705695EF
:10035000479537952795822B932BA42BB52B848318
:100360009583A683B7838281938101969383828349
:10037000DF0101C0D201CD01CDB7DEB7E2E10C94BF
:10038000B72AA0E2B0E0E7ECF1E00C94A72A698379
:100390007A838B839C832D833E834F835887E9E048
:1003A000EE2EF12CEC0EFD1ECE010196B7010E943F
:1003B0007E058E010F5E1F4FCE010596B8010E948B
:1003C0007E058A8991E089278A8BC701B801AE0131
:1003D000475E5F4F0E9475000E94A904A096E6E068
:1003E0000C94C32AA0E2B0E0E8EFF1E00C94A72A55
:1003F00069837A838B839C832D833E834F835887C5
:10040000F9E0EF2EF12CEC0EFD1ECE010196B701A6
:100410000E947E058E010F5E1F4FCE010596B8012A
:100420000E947E05C701B801AE01475E5F4F0E9482
:1004300075000E94A904A096E6E00C94C32AA0E2ED
:10044000B0E0E5E2F2E00C949B2A69837A838B8327
:100450009C832D833E834F835887CE010196BE0136
:10046000675F7F4F0E947E05CE010596BE016F5EDD
:100470007F4F0E947E059985923088F0898982306D
:10048000C8F0943019F4823051F404C0843029F457
:10049000923081F486E790E0C6C0923049F420E0C3
:1004A0009A858A89981321E02A87CE010996BBC0D4
:1004B000823049F420E09A858A89981321E02A8BBA
:1004C000CE014196B0C02D843E844F8458886D88FB
:1004D0007E888F88988CEE24FF248701AA24BB2471
:1004E000650140E050E060E070E0E0E0F0E0C10174
:1004F00081709070892BE9F0E60CF71C081D191D1E
:100500009A01AB012A0D3B1D4C1D5D1D80E090E062
:10051000A0E0B0E0E614F7040805190520F481E036
:1005200090E0A0E0B0E0BA01A901480F591F6A1F8E
:100530007B1FAA0CBB1CCC1CDD1C97FE08C081E0F5
:1005400090E0A0E0B0E0A82AB92ACA2ADB2A3196B6
:10055000E032F10549F0660C771C881C991C569412
:10056000479437942794C3CFFA85EA892B893C892D
:100570008B859C85280F391F2E5F3F4F17C0CA01FE
:1005800081709070892B61F016950795F794E79428
:1005900080E090E0A0E0B0E8E82AF92A0A2B1B2BC3
:1005A00076956795579547952F5F3F4F77FDE7CF36
:1005B0000CC0440F551F661F771F17FD4160EE0CDE
:1005C000FF1C001F111F21503040403090E05907A0
:1005D00090E0690790E4790760F32B8F3C8FDB0193
:1005E000CA018F779070A070B07080349105A1051A
:1005F000B10561F447FD0AC0E114F10401051105DC
:1006000029F0405C5F4F6F4F7F4F40781A8EFE1786
:1006100011F081E08A8F4D8F5E8F6F8F78A383E01A
:10062000898FCE0149960E94A904A096E2E10C941C
:10063000B72AA8E1B0E0EFE1F3E00C94A32A6983C4
:100640007A838B839C832D833E834F835887B9E0C5
:10065000EB2EF12CEC0EFD1ECE010196B7010E948F
:100660007E058E010F5E1F4FCE010596B8010E94D8
:100670007E052985223008F47EC03989323010F495
:10068000B8017CC08A859A8989278A87243011F02D
:10069000223031F4231709F06EC066E770E06EC0B7
:1006A000343039F41D861E861F86188A1C861B86E8
:1006B00004C0323021F484E08987B7015FC02B8504
:1006C0003C858B899C89281B390B3C872B87ED84C3
:1006D000FE840F851889AD88BE88CF88D88CEA142F
:1006E000FB040C051D0540F4EE0CFF1C001F111F40
:1006F000215030403C872B8720E030E040E050E044
:1007000080E090E0A0E0B0E460E070E0EA14FB0478
:100710000C051D0540F0282B392B4A2B5B2BEA18C2
:10072000FB080C091D09B695A79597958795EE0CC2
:10073000FF1C001F111F6F5F7F4F6F31710531F775
:10074000DA01C9018F779070A070B0708034910584
:10075000A105B10561F427FD0AC0E114F10401050A
:10076000110529F0205C3F4F4F4F5F4F20782D87B8
:100770003E874F87588BBE01675F7F4FCB010E943A
:10078000A9046896EAE00C94BF2AA8E1B0E0EBEC7B
:10079000F3E00C94A72A69837A838B839C832D834F
:1007A0003E834F83588789E0E82EF12CEC0EFD1E26
:1007B000CE010196B7010E947E058E010F5E1F4F8C
:1007C000CE010596B8010E947E058985823040F0F1
:1007D0008989823028F0C701B8010E94F60501C05E
:1007E0008FEF6896E6E00C94C32AA8E1B0E0EBEF47
:1007F000F3E00C94A72A69837A838B839C832D83EF
:100800003E834F83588789E0E82EF12CEC0EFD1EC5
:10081000CE010196B7010E947E058E010F5E1F4F2B
:10082000CE010596B8010E947E058985823040F090
:100830008989823028F0C701B8010E94F60501C0FD
:100840008FEF6896E6E00C94C32AA8E1B0E0EBE2F3
:10085000F4E00C94A72A69837A838B839C832D838D
:100860003E834F83588789E0E82EF12CEC0EFD1E65
:10087000CE010196B7010E947E058E010F5E1F4FCB
:10088000CE010596B8010E947E058985823040F030
:100890008989823028F0C701B8010E94F60501C09D
:1008A00081E06896E6E00C94C32AACE0B0E0EBE5AA
:1008B000F4E00C94AB2A69837A838B839C83CE010A
:1008C0000196BE016B5F7F4F0E947E058D81823055
:1008D00061F1823050F1843021F48E81882351F10E
:1008E0002EC02F81388537FD20C06E812F31310514
:1008F0001CF06623F9F023C08EE190E0821B930B7D
:1009000029853A854B855C8504C056954795379572
:1009100027958A95D2F76623B1F05095409530958A
:1009200021953F4F4F4F5F4F0EC020E030E040E039
:1009300050E009C02FEF3FEF4FEF5FE704C020E02A
:1009400030E040E050E8B901CA012C96E2E00C9496
:10095000C72ADF92EF92FF920F931F93FC01E4806E
:10096000F58006811781D1808081823048F480E053
:1009700090E0A0E1B0E0E82AF92A0A2B1B2BA5C0E1
:10098000843009F49FC0823021F4EE24FF248701D3
:1009900005C0E114F1040105110519F4E0E0F0E0EF
:1009A00096C0628173819FEF623879070CF05BC05B
:1009B00022E83FEF261B370B2A3131052CF020E0CF
:1009C00030E040E050E02AC0B801A701022E04C088
:1009D00076956795579547950A94D2F781E090E010
:1009E000A0E0B0E004C0880F991FAA1FBB1F2A9582
:1009F000D2F70197A109B1098E219F21A023B1232C
:100A00000097A105B10521F081E090E0A0E0B0E001
:100A10009A01AB01282B392B4A2B5B2BDA01C90138
:100A20008F779070A070B07080349105A105B105EA
:100A300039F427FF09C0205C3F4F4F4F5F4F04C080
:100A4000215C3F4F4F4F5F4FE0E0F0E02030A0E0EF
:100A50003A07A0E04A07A0E45A0710F0E1E0F0E00E
:100A600079018A0127C06038710564F5FB01E158FE
:100A7000FF4FD801C7018F779070A070B07080349D
:100A80009105A105B10539F4E7FE0DC080E490E0C1
:100A9000A0E0B0E004C08FE390E0A0E0B0E0E80E9A
:100AA000F91E0A1F1B1F17FF05C016950795F7941F
:100AB000E794319687E016950795F794E7948A9521
:100AC000D1F705C0EE24FF248701EFEFF0E06E2F91
:100AD000679566276795902F9F77D794DD24D794E5
:100AE0008E2F8695492F462B582F5D29B701CA01B5
:100AF0001F910F91FF90EF90DF900895FC01DB01B3
:100B0000408151812281622F6F7770E0221F22275E
:100B1000221F9381892F880F822B282F30E0991F65
:100B20009927991F11969C93119721153105A9F5C5
:100B3000411551056105710511F482E037C082E865
:100B40009FEF13969C938E9312979A01AB0167E0E7
:100B5000220F331F441F551F6A95D1F783E08C93F2
:100B60000DC0220F331F441F551F12968D919C916B
:100B70001397019713969C938E931297203080E0E1
:100B8000380780E0480780E4580758F314962D93FF
:100B90003D934D935C93179708952F3F310579F45A
:100BA000411551056105710519F484E08C93089590
:100BB00064FF03C081E08C9312C01C9210C02F57B9
:100BC000304013963C932E93129783E08C9387E0EA
:100BD000440F551F661F771F8A95D1F770641496CE
:100BE0004D935D936D937C93179708951F93DC014C
:100BF000FB019C91923008F447C08081823008F458
:100C000043C0943051F411961C91843099F5818140
:100C1000682F70E0611B71093FC0843021F0923071
:100C200031F48230B9F18181882389F12DC0119688
:100C30001C9111978230F1F081811817D9F4129626
:100C40002D913C911397828193818217930794F0A1
:100C500028173907BCF014968D919D910D90BC9189
:100C6000A02D2481358146815781281739074A07ED
:100C70005B0718F4112341F00AC082179307A407F9
:100C8000B50740F4112319F061E070E005C06FEF83
:100C90007FEF02C060E070E0CB011F910895DF9309
:100CA000CF9300D00F92CDB7DEB719820C945F14AA
:100CB0008981282F30E0C901880F991F820F931F67
:100CC000FC01E657FF4F8081282F30E03B832A83C9
:100CD0008A819B818F30910509F41AC72A813B8153
:100CE000203131050CF05BC08A819B8187309105F2
:100CF00009F4B8C32A813B81283031055CF58A812B
:100D00009B818330910509F4FDC12A813B81243008
:100D100031059CF48A819B818130910509F41AC1C7
:100D20002A813B81223031050CF080C18A819B8170
:100D3000009709F4A3C00C945C142A813B812530F0
:100D4000310509F4B7C28A819B81863091050CF088
:100D50001DC344C22A813B812B30310509F431C5C2
:100D60008A819B818C3091056CF42A813B812930EA
:100D7000310509F44EC48A819B818A3091050CF0BB
:100D8000B4C4DCC32A813B812D30310509F4EFC5A1
:100D90008A819B818E3091050CF053C67EC52A81D5
:100DA0003B812731310511F40C94C0108A819B815D
:100DB000883191054CF52A813B812331310511F4AD
:100DC0000C94240F8A819B81843191056CF42A81D3
:100DD0003B812131310509F469C78A819B818231C8
:100DE00091050CF0CAC7FBC62A813B81253131052C
:100DF00011F40C94F20F8A819B818631910514F0D5
:100E00000C9459100C948B0F2A813B812B313105A6
:100E100011F40C945C128A819B818C31910584F4CD
:100E20002A813B812931310511F40C948E118A817C
:100E30009B818A31910514F00C94F5110C942711C3
:100E40002A813B812D31310511F40C942A138A81BA
:100E50009B818D31910514F40C94C3122A813B813E
:100E60002E31310511F40C9491138A819B818F31BD
:100E7000910511F40C94F8130C945C148981282FBB
:100E800030E0C901880F991F820F931FFC01E557BD
:100E9000FF4F8081813049F4AAE3B0E0EAE3F0E05B
:100EA000808181608C930C945C148981282F30E0C0
:100EB000C901880F991F820F931FFC01E557FF4F4F
:100EC00080818823F1F48981282F30E0C901880FBF
:100ED000991F820F931FFC01E457FF4F80818130DF
:100EE00081F4AAE3B0E0EAE3F0E080818E7F8C93A6
:100EF000ABE3B0E0EBE3F0E0808181608C930C9495
:100F00005C148981282F30E0C901880F991F820F56
:100F1000931FFC01E557FF4F8081882311F00C944B
:100F20005C148981282F30E0C901880F991F820F36
:100F3000931FFC01E457FF4F8081882311F00C942C
:100F40005C14AAE3B0E0EAE3F0E080818E7F8C934A
:100F50000C945C148981282F30E0C901880F991FF7
:100F6000820F931FFC01E557FF4F8081813049F4C8
:100F7000AAE3B0E0EAE3F0E0808182608C930C9415
:100F80005C148981282F30E0C901880F991F820FD6
:100F9000931FFC01E557FF4F80818823F1F489817D
:100FA000282F30E0C901880F991F820F931FFC0181
:100FB000E457FF4F8081813081F4AAE3B0E0EAE397
:100FC000F0E080818D7F8C93ABE3B0E0EBE3F0E069
:100FD000808182608C930C945C148981282F30E08E
:100FE000C901880F991F820F931FFC01E557FF4F1E
:100FF0008081882311F00C945C148981282F30E0C3
:10100000C901880F991F820F931FFC01E457FF4FFE
:101010008081882311F00C945C14AAE3B0E0EAE329
:10102000F0E080818D7F8C930C945C148981282F53
:1010300030E0C901880F991F820F931FFC01E5570B
:10104000FF4F8081813049F4AAE3B0E0EAE3F0E0A9
:10105000808184608C930C945C148981282F30E00B
:10106000C901880F991F820F931FFC01E557FF4F9D
:1010700080818823F1F48981282F30E0C901880F0D
:10108000991F820F931FFC01E457FF4F808181302D
:1010900081F4AAE3B0E0EAE3F0E080818B7F8C93F7
:1010A000ABE3B0E0EBE3F0E0808184608C930C94E0
:1010B0005C148981282F30E0C901880F991F820FA5
:1010C000931FFC01E557FF4F8081882311F00C949A
:1010D0005C148981282F30E0C901880F991F820F85
:1010E000931FFC01E457FF4F8081882311F00C947B
:1010F0005C14AAE3B0E0EAE3F0E080818B7F8C939C
:101100000C945C148981282F30E0C901880F991F45
:10111000820F931FFC01E557FF4F8081813049F416
:10112000AAE3B0E0EAE3F0E0808188608C930C945D
:101130005C148981282F30E0C901880F991F820F24
:10114000931FFC01E557FF4F80818823F1F48981CB
:10115000282F30E0C901880F991F820F931FFC01CF
:10116000E457FF4F8081813081F4AAE3B0E0EAE3E5
:10117000F0E08081877F8C93ABE3B0E0EBE3F0E0BD
:10118000808188608C930C945C148981282F30E0D6
:10119000C901880F991F820F931FFC01E557FF4F6C
:1011A0008081882311F00C945C148981282F30E011
:1011B000C901880F991F820F931FFC01E457FF4F4D
:1011C0008081882311F00C945C14AAE3B0E0EAE378
:1011D000F0E08081877F8C930C945C148981282FA8
:1011E00030E0C901880F991F820F931FFC01E5575A
:1011F000FF4F8081813049F4AAE3B0E0EAE3F0E0F8
:10120000808180618C930C945C148981282F30E05C
:10121000C901880F991F820F931FFC01E557FF4FEB
:1012200080818823F1F48981282F30E0C901880F5B
:10123000991F820F931FFC01E457FF4F808181307B
:1012400081F4AAE3B0E0EAE3F0E080818F7E8C9342
:10125000ABE3B0E0EBE3F0E0808180618C930C9431
:101260005C148981282F30E0C901880F991F820FF3
:10127000931FFC01E557FF4F8081882311F00C94E8
:101280005C148981282F30E0C901880F991F820FD3
:10129000931FFC01E457FF4F8081882311F00C94C9
:1012A0005C14AAE3B0E0EAE3F0E080818F7E8C93E7
:1012B0000C945C148981282F30E0C901880F991F94
:1012C000820F931FFC01E557FF4F8081813049F465
:1012D000AAE3B0E0EAE3F0E0808180628C930C94B2
:1012E0005C148981282F30E0C901880F991F820F73
:1012F000931FFC01E557FF4F80818823F1F489811A
:10130000282F30E0C901880F991F820F931FFC011D
:10131000E457FF4F8081813081F4AAE3B0E0EAE333
:10132000F0E080818F7D8C93ABE3B0E0EBE3F0E005
:10133000808180628C930C945C148981282F30E02A
:10134000C901880F991F820F931FFC01E557FF4FBA
:101350008081882311F00C945C148981282F30E05F
:10136000C901880F991F820F931FFC01E457FF4F9B
:101370008081882311F00C945C14AAE3B0E0EAE3C6
:10138000F0E080818F7D8C930C945C148981282FF0
:1013900030E0C901880F991F820F931FFC01E557A8
:1013A000FF4F8081813049F4AAE3B0E0EAE3F0E046
:1013B000808180648C930C945C148981282F30E0A8
:1013C000C901880F991F820F931FFC01E557FF4F3A
:1013D00080818823F1F48981282F30E0C901880FAA
:1013E000991F820F931FFC01E457FF4F80818130CA
:1013F00081F4AAE3B0E0EAE3F0E080818F7B8C9394
:10140000ABE3B0E0EBE3F0E0808180648C930C947C
:101410005C148981282F30E0C901880F991F820F41
:10142000931FFC01E557FF4F8081882311F00C9436
:101430005C148981282F30E0C901880F991F820F21
:10144000931FFC01E457FF4F8081882311F00C9417
:101450005C14AAE3B0E0EAE3F0E080818F7B8C9338
:101460000C945C148981282F30E0C901880F991FE2
:10147000820F931FFC01E557FF4F8081813049F4B3
:10148000AAE3B0E0EAE3F0E0808180688C930C94FA
:101490005C148981282F30E0C901880F991F820FC1
:1014A000931FFC01E557FF4F80818823F1F4898168
:1014B000282F30E0C901880F991F820F931FFC016C
:1014C000E457FF4F8081813081F4AAE3B0E0EAE382
:1014D000F0E080818F778C93ABE3B0E0EBE3F0E05A
:1014E000808180688C930C945C148981282F30E073
:1014F000C901880F991F820F931FFC01E557FF4F09
:101500008081882311F00C945C148981282F30E0AD
:10151000C901880F991F820F931FFC01E457FF4FE9
:101520008081882311F00C945C14AAE3B0E0EAE314
:10153000F0E080818F778C930C945C148981282F44
:1015400030E0C901880F991F820F931FFC01E557F6
:10155000FF4F8081813041F4E7E3F0E0A7E3B0E0A2
:101560008C9180830C945C148981282F30E0C90110
:10157000880F991F820F931FFC01E557FF4F808151
:101580008823F1F48981282F30E0C901880F991F41
:10159000820F931FFC01E457FF4F8081813081F45B
:1015A000A7E3B0E0E7E3F0E080818E7F8C93A8E3CF
:1015B000B0E0E8E3F0E0808181608C930C945C14EF
:1015C0008981282F30E0C901880F991F820F931F4E
:1015D000FC01E557FF4F8081882311F00C945C14C7
:1015E0008981282F30E0C901880F991F820F931F2E
:1015F000FC01E457FF4F8081882311F00C945C14A8
:10160000A7E3B0E0E7E3F0E080818E7F8C930C9459
:101610005C148981282F30E0C901880F991F820F3F
:10162000931FFC01E557FF4F8081813049F4A7E308
:10163000B0E0E7E3F0E0808182608C930C945C146E
:101640008981282F30E0C901880F991F820F931FCD
:10165000FC01E557FF4F80818823F1F48981282F11
:1016600030E0C901880F991F820F931FFC01E457D6
:10167000FF4F8081813081F4A7E3B0E0E7E3F0E041
:1016800080818D7F8C93A8E3B0E0E8E3F0E0808177
:1016900082608C930C945C148981282F30E0C901FE
:1016A000880F991F820F931FFC01E557FF4F808120
:1016B000882311F00C945C148981282F30E0C90133
:1016C000880F991F820F931FFC01E457FF4F808101
:1016D000882311F00C945C14A7E3B0E0E7E3F0E09A
:1016E00080818D7F8C930C945C148981282F30E04D
:1016F000C901880F991F820F931FFC01E557FF4F07
:101700008081813049F4A7E3B0E0E7E3F0E0808135
:1017100084608C930C945C148981282F30E0C9017B
:10172000880F991F820F931FFC01E557FF4F80819F
:101730008823F1F48981282F30E0C901880F991F8F
:10174000820F931FFC01E457FF4F8081813081F4A9
:10175000A7E3B0E0E7E3F0E080818B7F8C93A8E320
:10176000B0E0E8E3F0E0808184608C930C945C143A
:101770008981282F30E0C901880F991F820F931F9C
:10178000FC01E557FF4F8081882311F00C945C1415
:101790008981282F30E0C901880F991F820F931F7C
:1017A000FC01E457FF4F8081882311F00C945C14F6
:1017B000A7E3B0E0E7E3F0E080818B7F8C930C94AB
:1017C0005C148981282F30E0C901880F991F820F8E
:1017D000931FFC01E557FF4F8081813049F4A7E357
:1017E000B0E0E7E3F0E0808188608C930C945C14B7
:1017F0008981282F30E0C901880F991F820F931F1C
:10180000FC01E557FF4F80818823F1F48981282F5F
:1018100030E0C901880F991F820F931FFC01E45724
:10182000FF4F8081813081F4A7E3B0E0E7E3F0E08F
:101830008081877F8C93A8E3B0E0E8E3F0E08081CB
:1018400088608C930C945C148981282F30E0C90146
:10185000880F991F820F931FFC01E557FF4F80816E
:10186000882311F00C945C148981282F30E0C90181
:10187000880F991F820F931FFC01E457FF4F80814F
:10188000882311F00C945C14A7E3B0E0E7E3F0E0E8
:101890008081877F8C930C945C148981282F30E0A1
:1018A000C901880F991F820F931FFC01E557FF4F55
:1018B0008081813049F4A7E3B0E0E7E3F0E0808184
:1018C00080618C930C945C148981282F30E0C901CD
:1018D000880F991F820F931FFC01E557FF4F8081EE
:1018E0008823F1F48981282F30E0C901880F991FDE
:1018F000820F931FFC01E457FF4F8081813081F4F8
:10190000A7E3B0E0E7E3F0E080818F7E8C93A8E36B
:10191000B0E0E8E3F0E0808180618C930C945C148B
:101920008981282F30E0C901880F991F820F931FEA
:10193000FC01E557FF4F8081882309F0BDC78981ED
:10194000282F30E0C901880F991F820F931FFC01D7
:10195000E457FF4F8081882309F0AEC7A7E3B0E0CA
:10196000E7E3F0E080818F7E8C930C945C14898196
:10197000282F30E0C901880F991F820F931FFC01A7
:10198000E557FF4F8081813049F4A7E3B0E0E7E3FA
:10199000F0E0808180628C930C945C148981282F04
:1019A00030E0C901880F991F820F931FFC01E55792
:1019B000FF4F80818823F1F48981282F30E0C9010D
:1019C000880F991F820F931FFC01E457FF4F8081FE
:1019D000813081F4A7E3B0E0E7E3F0E080818F7D20
:1019E0008C93A8E3B0E0E8E3F0E0808180628C9320
:1019F0000C945C148981282F30E0C901880F991F4D
:101A0000820F931FFC01E557FF4F8081882309F067
:101A100053C78981282F30E0C901880F991F820F91
:101A2000931FFC01E457FF4F8081882309F044C7CE
:101A3000A7E3B0E0E7E3F0E080818F7D8C930C9426
:101A40005C148981282F30E0C901880F991F820F0B
:101A5000931FFC01E557FF4F8081813041F4A7E3DC
:101A6000B0E0E7E3F0E0808180648C9325C7898152
:101A7000282F30E0C901880F991F820F931FFC01A6
:101A8000E557FF4F80818823E9F48981282F30E0D2
:101A9000C901880F991F820F931FFC01E457FF4F64
:101AA0008081813079F4A7E3B0E0E7E3F0E0808162
:101AB0008F7B8C93A8E3B0E0E8E3F0E08081806462
:101AC0008C93FAC68981282F30E0C901880F991FAD
:101AD000820F931FFC01E557FF4F8081882309F097
:101AE000EBC68981282F30E0C901880F991F820F2A
:101AF000931FFC01E457FF4F8081882309F0DCC667
:101B0000A7E3B0E0E7E3F0E080818F7B8C93D4C65D
:101B10008981282F30E0C901880F991F820F931FF8
:101B2000FC01E557FF4F8081813041F4A7E3B0E02D
:101B3000E7E3F0E0808180688C93BEC68981282F1E
:101B400030E0C901880F991F820F931FFC01E557F0
:101B5000FF4F80818823E9F48981282F30E0C90173
:101B6000880F991F820F931FFC01E457FF4F80815C
:101B7000813079F4A7E3B0E0E7E3F0E080818F778C
:101B80008C93A8E3B0E0E8E3F0E0808180688C9378
:101B900093C68981282F30E0C901880F991F820FD1
:101BA000931FFC01E557FF4F8081882309F084C60D
:101BB0008981282F30E0C901880F991F820F931F58
:101BC000FC01E457FF4F8081882309F075C6A7E325
:101BD000B0E0E7E3F0E080818F778C936DC6898178
:101BE000282F30E0C901880F991F820F931FFC0135
:101BF000E557FF4F8081813041F4A4E3B0E0E4E396
:101C0000F0E0808181608C9357C68981282F30E075
:101C1000C901880F991F820F931FFC01E557FF4FE1
:101C200080818823E9F48981282F30E0C901880F59
:101C3000991F820F931FFC01E457FF4F8081813071
:101C400079F4A4E3B0E0E4E3F0E080818E7F8C934C
:101C5000A5E3B0E0E5E3F0E0808181608C932CC6E1
:101C60008981282F30E0C901880F991F820F931FA7
:101C7000FC01E557FF4F8081882309F01DC689814B
:101C8000282F30E0C901880F991F820F931FFC0194
:101C9000E457FF4F8081882309F00EC6A4E3B0E02B
:101CA000E4E3F0E080818E7F8C9306C68981282F43
:101CB00030E0C901880F991F820F931FFC01E5577F
:101CC000FF4F8081813041F4A4E3B0E0E4E3F0E031
:101CD000808182608C93F0C58981282F30E0C90112
:101CE000880F991F820F931FFC01E557FF4F8081DA
:101CF0008823E9F48981282F30E0C901880F991FD2
:101D0000820F931FFC01E457FF4F8081813079F4EB
:101D1000A4E3B0E0E4E3F0E080818D7F8C93A5E361
:101D2000B0E0E5E3F0E0808182608C93C5C58981F5
:101D3000282F30E0C901880F991F820F931FFC01E3
:101D4000E557FF4F8081882309F0B6C58981282F88
:101D500030E0C901880F991F820F931FFC01E457DF
:101D6000FF4F8081882309F0A7C5A4E3B0E0E4E336
:101D7000F0E080818D7F8C939FC58981282F30E092
:101D8000C901880F991F820F931FFC01E557FF4F70
:101D90008081813041F4A4E3B0E0E4E3F0E08081AD
:101DA00084608C9389C58981282F30E0C901880F10
:101DB000991F820F931FFC01E557FF4F80818823F5
:101DC000E9F48981282F30E0C901880F991F820F1B
:101DD000931FFC01E457FF4F8081813079F4A4E325
:101DE000B0E0E4E3F0E080818B7F8C93A5E3B0E08A
:101DF000E5E3F0E0808184608C935EC58981282FC3
:101E000030E0C901880F991F820F931FFC01E5572D
:101E1000FF4F8081882309F04FC58981282F30E04A
:101E2000C901880F991F820F931FFC01E457FF4FD0
:101E30008081882309F040C5A4E3B0E0E4E3F0E04A
:101E400080818B7F8C9338C58981282F30E0C90130
:101E5000880F991F820F931FFC01E557FF4F808168
:101E6000813041F4A4E3B0E0E4E3F0E080818860F5
:101E70008C9322C58981282F30E0C901880F991FD2
:101E8000820F931FFC01E557FF4F80818823E9F4FF
:101E90008981282F30E0C901880F991F820F931F75
:101EA000FC01E457FF4F8081813079F4A4E3B0E076
:101EB000E4E3F0E08081877F8C93A5E3B0E0E5E385
:101EC000F0E0808188608C93F7C48981282F30E00E
:101ED000C901880F991F820F931FFC01E557FF4F1F
:101EE0008081882309F0E8C48981282F30E0C90166
:101EF000880F991F820F931FFC01E457FF4F8081C9
:101F0000882309F0D9C4A4E3B0E0E4E3F0E08081E1
:101F1000877F8C93D1C48981282F30E0C901880F35
:101F2000991F820F931FFC01E557FF4F808181307D
:101F300041F4A4E3B0E0E4E3F0E0808180618C93BD
:101F4000BBC48981282F30E0C901880F991F820FF7
:101F5000931FFC01E557FF4F80818823E9F48981B5
:101F6000282F30E0C901880F991F820F931FFC01B1
:101F7000E457FF4F8081813079F4A4E3B0E0E4E3DB
:101F8000F0E080818F7E8C93A5E3B0E0E5E3F0E0A4
:101F9000808180618C9390C48981282F30E0C901B1
:101FA000880F991F820F931FFC01E557FF4F808117
:101FB000882309F081C48981282F30E0C901880F66
:101FC000991F820F931FFC01E457FF4F80818823E4
:101FD00009F072C4A4E3B0E0E4E3F0E080818F7E16
:101FE0008C936AC48981282F30E0C901880F991F1A
:101FF000820F931FFC01E557FF4F8081813041F430
:10200000A4E3B0E0E4E3F0E0808180628C9354C408
:102010008981282F30E0C901880F991F820F931FF3
:10202000FC01E557FF4F80818823E9F48981282F3F
:1020300030E0C901880F991F820F931FFC01E457FC
:10204000FF4F8081813079F4A4E3B0E0E4E3F0E075
:1020500080818F7D8C93A5E3B0E0E5E3F0E08081A3
:1020600080628C9329C48981282F30E0C901880FB0
:10207000991F820F931FFC01E557FF4F8081882332
:1020800009F01AC48981282F30E0C901880F991FEF
:10209000820F931FFC01E457FF4F8081882309F0D2
:1020A0000BC4A4E3B0E0E4E3F0E080818F7D8C9387
:1020B00003C48981282F30E0C901880F991F820F3E
:1020C000931FFC01E557FF4F8081813041F4A4E369
:1020D000B0E0E4E3F0E0808180648C93EDC389811B
:1020E000282F30E0C901880F991F820F931FFC0130
:1020F000E557FF4F80818823E9F48981282F30E05C
:10210000C901880F991F820F931FFC01E457FF4FED
:102110008081813079F4A4E3B0E0E4E3F0E08081F1
:102120008F7B8C93A5E3B0E0E5E3F0E080818064F1
:102130008C93C2C38981282F30E0C901880F991F71
:10214000820F931FFC01E557FF4F8081882309F020
:10215000B3C38981282F30E0C901880F991F820FEE
:10216000931FFC01E457FF4F8081882309F0A4C32B
:10217000A4E3B0E0E4E3F0E080818F7B8C939CC328
:102180008981282F30E0C901880F991F820F931F82
:10219000FC01E557FF4F8081882341F4A4E3B0E0C0
:1021A000E4E3F0E0808180688C9386C38981282FE6
:1021B00030E0C901880F991F820F931FFC01E5577A
:1021C000FF4F80818823E9F48981282F30E0C901FD
:1021D000880F991F820F931FFC01E457FF4F8081E6
:1021E000813079F4A4E3B0E0E4E3F0E080818F771C
:1021F0008C93A5E3B0E0E5E3F0E0808180688C9308
:102200005BC38981282F30E0C901880F991F820F95
:10221000931FFC01E557FF4F8081882309F04CC3D1
:102220008981282F30E0C901880F991F820F931FE1
:10223000FC01E457FF4F8081882309F03DC3A4E3EC
:10224000B0E0E4E3F0E080818F778C9335C389813F
:10225000282F30E0C901880F991F820F931FFC01BE
:10226000E557FF4F8081813041F4A1E3B0E0E1E325
:10227000F0E0808181608C931FC38981282F30E03A
:10228000C901880F991F820F931FFC01E557FF4F6B
:1022900080818823E9F48981282F30E0C901880FE3
:1022A000991F820F931FFC01E457FF4F80818130FB
:1022B00079F4A1E3B0E0E1E3F0E080818E7F8C93DC
:1022C000A2E3B0E0E2E3F0E0808181608C93F4C2AD
:1022D0008981282F30E0C901880F991F820F931F31
:1022E000FC01E557FF4F8081882309F0E5C2898111
:1022F000282F30E0C901880F991F820F931FFC011E
:10230000E457FF4F8081882309F0D6C2A1E3B0E0F3
:10231000E1E3F0E080818E7F8C93CEC28981282F0B
:1023200030E0C901880F991F820F931FFC01E55708
:10233000FF4F8081813041F4A1E3B0E0E1E3F0E0C0
:10234000808182608C93B8C28981282F30E0C901D6
:10235000880F991F820F931FFC01E557FF4F808163
:102360008823E9F48981282F30E0C901880F991F5B
:10237000820F931FFC01E457FF4F8081813079F475
:10238000A1E3B0E0E1E3F0E080818D7F8C93A2E3F4
:10239000B0E0E2E3F0E0808182608C938DC28981BD
:1023A000282F30E0C901880F991F820F931FFC016D
:1023B000E557FF4F8081882309F07EC28981282F4D
:1023C00030E0C901880F991F820F931FFC01E45769
:1023D000FF4F8081882309F06FC2A1E3B0E0E1E301
:1023E000F0E080818D7F8C9367C28981282F30E057
:1023F000C901880F991F820F931FFC01E557FF4FFA
:102400008081813041F4A1E3B0E0E1E3F0E080813C
:1024100084608C9351C28981282F30E0C901880FD4
:10242000991F820F931FFC01E557FF4F808188237E
:10243000E9F48981282F30E0C901880F991F820FA4
:10244000931FFC01E457FF4F8081813079F4A1E3B1
:10245000B0E0E1E3F0E080818B7F8C93A2E3B0E019
:10246000E2E3F0E0808184608C9326C28981282F8A
:1024700030E0C901880F991F820F931FFC01E557B7
:10248000FF4F8081882309F017C28981282F30E00F
:10249000C901880F991F820F931FFC01E457FF4F5A
:1024A0008081882309F008C2A1E3B0E0E1E3F0E015
:1024B00080818B7F8C9300C28981282F30E0C901F5
:1024C000880F991F820F931FFC01E557FF4F8081F2
:1024D000813041F4A1E3B0E0E1E3F0E08081886085
:1024E0008C93EAC18981282F30E0C901880F991F98
:1024F000820F931FFC01E557FF4F80818823E9F489
:102500008981282F30E0C901880F991F820F931FFE
:10251000FC01E457FF4F8081813079F4A1E3B0E002
:10252000E1E3F0E08081877F8C93A2E3B0E0E2E317
:10253000F0E0808188608C93BFC18981282F30E0D2
:10254000C901880F991F820F931FFC01E557FF4FA8
:102550008081882309F0B0C18981282F30E0C9012A
:10256000880F991F820F931FFC01E457FF4F808152
:10257000882309F0A1C1A1E3B0E0E1E3F0E08081AC
:10258000877F8C9399C18981282F30E0C901880FFA
:10259000991F820F931FFC01E557FF4F8081813007
:1025A00041F4A1E3B0E0E1E3F0E0808180618C934D
:1025B00083C18981282F30E0C901880F991F820FBC
:1025C000931FFC01E557FF4F80818823E9F489813F
:1025D000282F30E0C901880F991F820F931FFC013B
:1025E000E457FF4F8081813079F4A1E3B0E0E1E36B
:1025F000F0E080818F7E8C93A2E3B0E0E2E3F0E034
:10260000808180618C9358C18981282F30E0C90175
:10261000880F991F820F931FFC01E557FF4F8081A0
:10262000882309F049C18981282F30E0C901880F2A
:10263000991F820F931FFC01E457FF4F808188236D
:1026400009F03AC1A1E3B0E0E1E3F0E080818F7EE0
:102650008C9332C18981282F30E0C901880F991FDE
:10266000820F931FFC01E557FF4F8081813041F4B9
:10267000A1E3B0E0E1E3F0E0808180628C931CC1D3
:102680008981282F30E0C901880F991F820F931F7D
:10269000FC01E557FF4F80818823E9F48981282FC9
:1026A00030E0C901880F991F820F931FFC01E45786
:1026B000FF4F8081813079F4A1E3B0E0E1E3F0E005
:1026C00080818F7D8C93A2E3B0E0E2E3F0E0808133
:1026D00080628C93F1C08981282F30E0C901880F76
:1026E000991F820F931FFC01E557FF4F80818823BC
:1026F00009F0E2C08981282F30E0C901880F991FB5
:10270000820F931FFC01E457FF4F8081882309F05B
:10271000D3C0A1E3B0E0E1E3F0E080818F7D8C9352
:10272000CBC08981282F30E0C901880F991F820F03
:10273000931FFC01E557FF4F8081813041F4A1E3F5
:10274000B0E0E1E3F0E0808180648C93B5C08981E2
:10275000282F30E0C901880F991F820F931FFC01B9
:10276000E557FF4F80818823E9F48981282F30E0E5
:10277000C901880F991F820F931FFC01E457FF4F77
:102780008081813079F4A1E3B0E0E1E3F0E0808181
:102790008F7B8C93A2E3B0E0E2E3F0E08081806481
:1027A0008C938AC08981282F30E0C901880F991F36
:1027B000820F931FFC01E557FF4F8081882309F0AA
:1027C0007BC08981282F30E0C901880F991F820FB3
:1027D000931FFC01E457FF4F8081882309F06CC0F0
:1027E000A1E3B0E0E1E3F0E080818F7B8C9364C0F3
:1027F0008981282F30E0C901880F991F820F931F0C
:10280000FC01E557FF4F8081813041F4A1E3B0E046
:10281000E1E3F0E0808180688C934EC08981282FAD
:1028200030E0C901880F991F820F931FFC01E55703
:10283000FF4F80818823E9F48981282F30E0C90186
:10284000880F991F820F931FFC01E457FF4F80816F
:10285000813079F4A1E3B0E0E1E3F0E080818F77AB
:102860008C93A2E3B0E0E2E3F0E0808180688C9397
:1028700023C08981282F30E0C901880F991F820F5A
:10288000931FFC01E557FF4F80818823A9F48981BC
:10289000282F30E0C901880F991F820F931FFC0178
:1028A000E457FF4F8081882339F4A1E3B0E0E1E3EE
:1028B000F0E080818F778C9389818F5F8983898114
:1028C000873010F40C94580681E00F900F900F9011
:1028D000CF91DF910895DF93CF9300D000D0CDB793
:1028E000DEB789836A838981282F30E0C901880F88
:1028F000991F820F931FFC01E657FF4F8081282FFD
:1029000030E03C832B838B819C818F30910509F4CF
:10291000DEC12B813C81203131050CF05AC08B8106
:102920009C818730910509F43AC12B813C81283084
:10293000310554F58B819C818330910509F4E3C006
:102940002B813C812430310594F48B819C81813032
:10295000910509F4B2C02B813C81223031050CF085
:10296000BFC08B819C81009709F494C0F2C22B8177
:102970003C812530310509F4ECC08B819C81863087
:1029800091050CF0F9C0D2C02B813C812B30310570
:1029900009F451C18B819C818C3091056CF42B81A1
:1029A0003C812930310509F420C18B819C818A301A
:1029B00091050CF02DC106C12B813C812D303105D4
:1029C00009F45FC18B819C818E3091050CF06CC144
:1029D00045C12B813C812731310509F410C28B811F
:1029E0009C81883191052CF52B813C812331310567
:1029F00009F4B9C18B819C81843191056CF42B81E0
:102A00003C812131310509F488C18B819C8182315F
:102A100091050CF095C16EC12B813C8125313105AA
:102A200009F4C7C18B819C81863191050CF0D4C11A
:102A3000ADC12B813C812B31310509F42CC28B8136
:102A40009C818C3191056CF42B813C8129313105BD
:102A500009F4FBC18B819C818A3191050CF008C27D
:102A6000E1C12B813C812D31310509F43AC28B81C2
:102A70009C818D3191050CF421C22B813C812E313A
:102A8000310509F441C28B819C818F31910509F494
:102A90004EC25FC28A81813041F4ABE3B0E0EBE328
:102AA000F0E0808181608C9354C2ABE3B0E0EBE353
:102AB000F0E080818E7F8C934CC28A81813041F41A
:102AC000ABE3B0E0EBE3F0E0808182608C9341C245
:102AD000ABE3B0E0EBE3F0E080818D7F8C9339C213
:102AE0008A81813041F4ABE3B0E0EBE3F0E0808138
:102AF00084608C932EC2ABE3B0E0EBE3F0E0808126
:102B00008B7F8C9326C28A81813041F4ABE3B0E0A5
:102B1000EBE3F0E0808188608C931BC2ABE3B0E014
:102B2000EBE3F0E08081877F8C9313C28A81813050
:102B300041F4ABE3B0E0EBE3F0E0808180618C93A3
:102B400008C2ABE3B0E0EBE3F0E080818F7E8C93D2
:102B500000C28A81813041F4ABE3B0E0EBE3F0E006
:102B6000808180628C93F5C1ABE3B0E0EBE3F0E0F1
:102B700080818F7D8C93EDC18A81813041F4ABE3FC
:102B8000B0E0EBE3F0E0808180648C93E2C1ABE3E2
:102B9000B0E0EBE3F0E080818F7B8C93DAC18A8137
:102BA000813041F4ABE3B0E0EBE3F0E0808180689A
:102BB0008C93CFC1ABE3B0E0EBE3F0E080818F77A3
:102BC0008C93C7C18A81813041F4A8E3B0E0E8E387
:102BD000F0E0808181608C93BCC1A8E3B0E0E8E3C1
:102BE000F0E080818E7F8C93B4C18A81813041F482
:102BF000A8E3B0E0E8E3F0E0808182608C93A9C1B3
:102C0000A8E3B0E0E8E3F0E080818D7F8C93A1C180
:102C10008A81813041F4A8E3B0E0E8E3F0E080810C
:102C200084608C9396C1A8E3B0E0E8E3F0E0808193
:102C30008B7F8C938EC18A81813041F4A8E3B0E010
:102C4000E8E3F0E0808188608C9383C1A8E3B0E082
:102C5000E8E3F0E08081877F8C937BC18A818130BB
:102C600041F4A8E3B0E0E8E3F0E0808180618C9378
:102C700070C1A8E3B0E0E8E3F0E080818F7E8C9340
:102C800068C18A81813041F4A8E3B0E0E8E3F0E074
:102C9000808180628C935DC1A8E3B0E0E8E3F0E05E
:102CA00080818F7D8C9355C18A81813041F4A8E366
:102CB000B0E0E8E3F0E0808180648C934AC1A8E34F
:102CC000B0E0E8E3F0E080818F7B8C9342C18A81A1
:102CD000813041F4A8E3B0E0E8E3F0E0808180686F
:102CE0008C9337C1A8E3B0E0E8E3F0E080818F7710
:102CF0008C932FC18A81813041F4A5E3B0E0E5E3F4
:102D0000F0E0808181608C9324C1A5E3B0E0E5E32D
:102D1000F0E080818E7F8C931CC18A81813041F4E8
:102D2000A5E3B0E0E5E3F0E0808182608C9311C11F
:102D3000A5E3B0E0E5E3F0E080818D7F8C9309C1ED
:102D40008A81813041F4A5E3B0E0E5E3F0E08081E1
:102D500084608C93FEC0A5E3B0E0E5E3F0E0808101
:102D60008B7F8C93F6C08A81813041F4A5E3B0E07B
:102D7000E5E3F0E0808188608C93EBC0A5E3B0E0F0
:102D8000E5E3F0E08081877F8C93E3C08A81813026
:102D900041F4A5E3B0E0E5E3F0E0808180618C934D
:102DA000D8C0A5E3B0E0E5E3F0E080818F7E8C93AE
:102DB000D0C08A81813041F4A5E3B0E0E5E3F0E0E2
:102DC000808180628C93C5C0A5E3B0E0E5E3F0E0CC
:102DD00080818F7D8C93BDC08A81813041F4A5E3D1
:102DE000B0E0E5E3F0E0808180648C93B2C0A5E3BD
:102DF000B0E0E5E3F0E080818F7B8C93AAC08A810C
:102E0000813041F4A5E3B0E0E5E3F0E08081806843
:102E10008C939FC0A5E3B0E0E5E3F0E080818F777D
:102E20008C9397C08A81813041F4A2E3B0E0E2E361
:102E3000F0E0808181608C938CC0A2E3B0E0E2E39B
:102E4000F0E080818E7F8C9384C08A81813041F450
:102E5000A2E3B0E0E2E3F0E0808182608C9379C08D
:102E6000A2E3B0E0E2E3F0E080818D7F8C9371C05B
:102E70008A81813041F4A2E3B0E0E2E3F0E08081B6
:102E800084608C9366C0A2E3B0E0E2E3F0E080816E
:102E90008B7F8C935EC08A81813041F4A2E3B0E0E5
:102EA000E2E3F0E0808188608C9353C0A2E3B0E05D
:102EB000E2E3F0E08081877F8C934BC08A81813090
:102EC00041F4A2E3B0E0E2E3F0E0808180618C9322
:102ED00040C0A2E3B0E0E2E3F0E080818F7E8C931B
:102EE00038C08A81813041F4A2E3B0E0E2E3F0E04F
:102EF000808180628C932DC0A2E3B0E0E2E3F0E039
:102F000080818F7D8C9325C08A81813041F4A2E33A
:102F1000B0E0E2E3F0E0808180648C931AC0A2E329
:102F2000B0E0E2E3F0E080818F7B8C9312C08A8175
:102F3000813041F4A2E3B0E0E2E3F0E08081806818
:102F40008C9307C0A2E3B0E0E2E3F0E080818F77EA
:102F50008C9381E00F900F900F900F90CF91DF91A5
:102F60000895DF93CF9300D000D00F92CDB7DEB796
:102F700089837B836A838981282F30E0C901880F88
:102F8000991F820F931FFC01E657FF4F8081282F66
:102F900030E03D832C838C819D818F30910509F435
:102FA00059C12C813D81203131050CF05AC08C81F2
:102FB0009D818730910509F4FCC02C813D8128302A
:102FC000310554F58C819D818330910509F4C5C08C
:102FD0002C813D812430310594F48C819D81813098
:102FE000910509F4A7C02C813D81223031050CF0F8
:102FF000AAC08C819D81009709F494C0D6C12C8110
:103000003D812530310509F4BDC08C819D8186301C
:1030100091050CF0C2C0ACC02C813D812B30310534
:1030200009F4ECC08C819D818C3091056CF42C816D
:103030003D812930310509F4CEC08C819D818A30D3
:1030400091050CF0D1C0BFC02C813D812D303105E0
:1030500009F4E9C08C819D818E3091050CF0EEC0A1
:10306000D8C02C813D812731310509F444C18C81C0
:103070009D81883191052CF52C813D8123313105CD
:1030800009F40DC18C819D81843191056CF42C81F2
:103090003D812131310509F4EFC08C819D81823160
:1030A00091050CF0F2C0E0C02C813D812531310545
:1030B00009F40AC18C819D81863191050CF00FC104
:1030C000F9C02C813D812B31310509F439C18C8146
:1030D0009D818C3191056CF42C813D812931310524
:1030E00009F41BC18C819D818A3191050CF01EC1B0
:1030F0000CC12C813D812D31310509F436C18C8103
:103100009D818D3191050CF426C12C813D812E319C
:10311000310509F435C18C819D818F31910509F408
:103120003BC143C1E9E3F0E080818170EA81FB812A
:1031300080833BC1E9E3F0E0808186958170EA817C
:10314000FB81808332C1E9E3F0E08081869586953A
:103150008170EA81FB81808328C1E9E3F0E080810E
:103160008695869586958170EA81FB8180831DC155
:10317000E9E3F0E0808182958F708170EA81FB81C4
:10318000808313C1E9E3F0E08081829586958770A2
:103190008170EA81FB81808308C1E9E3F0E08081EE
:1031A00082958695869583708170EA81FB81808304
:1031B000FCC0E9E3F0E08081881F8827881FEA814E
:1031C000FB818083F2C0E6E3F0E080818170EA81D8
:1031D000FB818083EAC0E6E3F0E080818695817020
:1031E000EA81FB818083E1C0E6E3F0E0808186959F
:1031F00086958170EA81FB818083D7C0E6E3F0E0A9
:1032000080818695869586958170EA81FB81808391
:10321000CCC0E6E3F0E0808182958F708170EA8116
:10322000FB818083C2C0E6E3F0E0808182958695D1
:1032300087708170EA81FB818083B7C0E6E3F0E0AC
:10324000808182958695869583708170EA81FB8165
:103250008083ABC0E6E3F0E08081881F8827881F69
:10326000EA81FB818083A1C0E3E3F0E0808181708B
:10327000EA81FB81808399C0E3E3F0E08081869559
:103280008170EA81FB81808390C0E3E3F0E080817C
:10329000869586958170EA81FB81808386C0E3E311
:1032A000F0E080818695869586958170EA81FB8124
:1032B00080837BC0E3E3F0E0808182958F70817032
:1032C000EA81FB81808371C0E3E3F0E08081829535
:1032D000869587708170EA81FB81808366C0E3E315
:1032E000F0E0808182958695869583708170EA8171
:1032F000FB8180835AC0E3E3F0E08081881F882748
:10330000881FEA81FB81808350C0E0E3F0E0808188
:103310008170EA81FB81808348C0E0E3F0E0808136
:1033200086958170EA81FB8180833FC0E0E3F0E015
:103330008081869586958170EA81FB81808335C086
:10334000E0E3F0E080818695869586958170EA813C
:10335000FB8180832AC0E0E3F0E0808182958F705A
:103360008170EA81FB81808320C0E0E3F0E080810E
:103370008295869587708170EA81FB81808315C074
:10338000E0E3F0E080818295869586958370817078
:10339000EA81FB81808309C0E0E3F0E08081881F3F
:1033A0008827881FEA81FB81808381E00F900F903E
:1033B0000F900F900F90CF91DF910895DF93CF93EF
:1033C00000D00F92CDB7DEB789838981282F30E0F6
:1033D000C901880F991F820F931FFC01E657FF4F09
:1033E0008081282F30E03B832A838A819B818F3024
:1033F000910509F448C12A813B81203131050CF047
:103400005AC08A819B818730910509F4F4C02A81D2
:103410003B812830310554F58A819B8183309105A9
:1034200009F4C5C02A813B812430310594F48A8196
:103430009B818130910509F4A8C02A813B8122300B
:1034400031050CF0ABC08A819B81009709F494C0D0
:10345000B2C12A813B812530310509F4BAC08A8185
:103460009B81863091050CF0BDC0AAC02A813B81AA
:103470002B30310509F4E3C08A819B818C309105A2
:103480006CF42A813B812930310509F4C6C08A8158
:103490009B818A3091050CF0C9C0B6C02A813B815E
:1034A0002D30310509F4DDC08A819B818E30910574
:1034B0000CF0E0C0CDC02A813B812731310509F4F1
:1034C0002AC18A819B81883191052CF52A813B8113
:1034D0002331310509F4FBC08A819B818431910538
:1034E0006CF42A813B812131310509F4DEC08A81E7
:1034F0009B81823191050CF0E1C0CEC02A813B81D5
:103500002531310509F4F5C08A819B818631910509
:103510000CF0F8C0E5C02A813B812B31310509F45C
:103520001EC18A819B818C3191056CF42A813B817B
:103530002931310509F401C18A819B818A319105C4
:103540000CF004C1F1C02A813B812D31310509F411
:1035500018C18A819B818D3191050CF409C12A81A2
:103560003B812E31310509F415C18A819B818F3150
:10357000910509F418C11FC1ABE3B0E0EBE3F0E043
:10358000908181E089278C9316C1ABE3B0E0EBE337
:10359000F0E0908182E089278C930DC1ABE3B0E02D
:1035A000EBE3F0E0908184E089278C9304C1ABE3E6
:1035B000B0E0EBE3F0E0908188E089278C93FBC0DA
:1035C000ABE3B0E0EBE3F0E0908180E189278C93FE
:1035D000F2C0ABE3B0E0EBE3F0E0908180E289275A
:1035E0008C93E9C0ABE3B0E0EBE3F0E0908184E0E2
:1035F00089278C93E0C0ABE3B0E0EBE3F0E090818F
:1036000080E889278C93D7C0A8E3B0E0E8E3F0E036
:10361000908181E089278C93CEC0A8E3B0E0E8E3F5
:10362000F0E0908182E089278C93C5C0A8E3B0E0E8
:10363000E8E3F0E0908184E089278C93BCC0A8E3A4
:10364000B0E0E8E3F0E0908188E089278C93B3C094
:10365000A8E3B0E0E8E3F0E0908180E189278C9373
:10366000AAC0A8E3B0E0E8E3F0E0908180E2892717
:103670008C93A1C0A8E3B0E0E8E3F0E0908180E49F
:1036800089278C9398C0A8E3B0E0E8E3F0E090814C
:1036900080E889278C938FC0A5E3B0E0E5E3F0E0F4
:1036A000908181E089278C9386C0A5E3B0E0E5E3B3
:1036B000F0E0908182E089278C937DC0A5E3B0E0A3
:1036C000E5E3F0E0908184E089278C9374C0A5E362
:1036D000B0E0E5E3F0E0908188E089278C936BC04F
:1036E000A5E3B0E0E5E3F0E0908180E189278C93E9
:1036F00062C0A5E3B0E0E5E3F0E0908180E28927D5
:103700008C9359C0A5E3B0E0E5E3F0E0908180E45C
:1037100089278C9350C0A5E3B0E0E5E3F0E0908109
:1037200080E889278C9347C0A2E3B0E0E2E3F0E0B1
:10373000908181E089278C933EC0A2E3B0E0E2E370
:10374000F0E0908182E089278C9335C0A2E3B0E05D
:10375000E2E3F0E0908184E089278C932CC0A2E31F
:10376000B0E0E2E3F0E0908188E089278C9323C009
:10377000A2E3B0E0E2E3F0E0908180E189278C935E
:103780001AC0A2E3B0E0E2E3F0E0908180E2892792
:103790008C9311C0A2E3B0E0E2E3F0E0908180E41A
:1037A00089278C9308C0A2E3B0E0E2E3F0E09081C7
:1037B00080E889278C9380E00F900F900F90CF9135
:1037C000DF910895DF93CF9300D000D0CDB7DEB75F
:1037D00089836A834B832C83A6E2B0E0E6E2F0E0C3
:1037E000808180688C93A6E2B0E0E6E2F0E0808120
:1037F00080618C938981823079F4A7E2B0E0E7E2BE
:10380000F0E080818F778C93A7E2B0E0E7E2F0E010
:1038100080818F7B8C9323C08981882379F4A7E2F0
:10382000B0E0E7E2F0E080818F778C93A7E2B0E030
:10383000E7E2F0E0808180648C9311C0898181305F
:1038400071F4A7E2B0E0E7E2F0E0808180688C9359
:10385000A7E2B0E0E7E2F0E0808180648C938A81A7
:10386000882351F4A7E2B0E0E7E2F0E080818062D3
:103870008C931092A0000DC08A81813051F4A7E290
:10388000B0E0E7E2F0E080818F7D8C9381E080936F
:10389000A0008B81882341F4A6E2B0E0E6E2F0E0EC
:1038A00080818F7D8C930AC08B81813039F4A6E2B0
:1038B000B0E0E6E2F0E0808180628C938C81882326
:1038C00041F4A6E2B0E0E6E2F0E08081877F8C93ED
:1038D0000AC08C81813039F4A6E2B0E0E6E2F0E083
:1038E000808188608C9381E00F900F900F900F90F3
:1038F000CF91DF910895DF93CF9300D0CDB7DEB79E
:1039000089836A838981882321F5A7E2B0E0E7E211
:10391000F0E080818F7E8C93A7E2B0E0E7E2F0E0F8
:103920008081877F8C93A7E2B0E0E7E2F0E08081BE
:103930008B7F8C93A7E2B0E0E7E2F0E080818D7F9F
:103940008C93A7E2B0E0E7E2F0E080818E7F8C9379
:1039500080C38981813021F5A7E2B0E0E7E2F0E0A1
:1039600080818F7E8C93A7E2B0E0E7E2F0E0808177
:10397000877F8C93A7E2B0E0E7E2F0E080818B7F65
:103980008C93A7E2B0E0E7E2F0E080818D7F8C933A
:10399000A7E2B0E0E7E2F0E0808181608C9359C358
:1039A0008981823021F5A7E2B0E0E7E2F0E0808192
:1039B0008F7E8C93A7E2B0E0E7E2F0E08081877F22
:1039C0008C93A7E2B0E0E7E2F0E080818B7F8C93FC
:1039D000A7E2B0E0E7E2F0E0808182608C93A7E2AA
:1039E000B0E0E7E2F0E080818E7F8C9332C3898182
:1039F000833021F5A7E2B0E0E7E2F0E080818F7E3E
:103A00008C93A7E2B0E0E7E2F0E08081877F8C93BF
:103A1000A7E2B0E0E7E2F0E080818B7F8C93A7E241
:103A2000B0E0E7E2F0E0808182608C93A7E2B0E052
:103A3000E7E2F0E0808181608C930BC38981843060
:103A400021F5A7E2B0E0E7E2F0E080818F7E8C9381
:103A5000A7E2B0E0E7E2F0E08081877F8C93A7E205
:103A6000B0E0E7E2F0E0808184608C93A7E2B0E010
:103A7000E7E2F0E080818D7F8C93A7E2B0E0E7E29F
:103A8000F0E080818E7F8C93E4C28981853021F5BE
:103A9000A7E2B0E0E7E2F0E080818F7E8C93A7E2BE
:103AA000B0E0E7E2F0E08081877F8C93A7E2B0E0AE
:103AB000E7E2F0E0808184608C93A7E2B0E0E7E287
:103AC000F0E080818D7F8C93A7E2B0E0E7E2F0E048
:103AD000808181608C93BDC28981863021F5A7E207
:103AE000B0E0E7E2F0E080818F7E8C93A7E2B0E067
:103AF000E7E2F0E08081877F8C93A7E2B0E0E7E225
:103B0000F0E0808184608C93A7E2B0E0E7E2F0E02F
:103B1000808182608C93A7E2B0E0E7E2F0E08081F0
:103B20008E7F8C9396C28981873021F5A7E2B0E021
:103B3000E7E2F0E080818F7E8C93A7E2B0E0E7E2DD
:103B4000F0E08081877F8C93A7E2B0E0E7E2F0E0CD
:103B5000808184608C93A7E2B0E0E7E2F0E08081AE
:103B600082608C93A7E2B0E0E7E2F0E080818160C0
:103B70008C936FC28981883021F5A7E2B0E0E7E23B
:103B8000F0E080818F7E8C93A7E2B0E0E7E2F0E086
:103B9000808188608C93A7E2B0E0E7E2F0E080816A
:103BA0008B7F8C93A7E2B0E0E7E2F0E080818D7F2D
:103BB0008C93A7E2B0E0E7E2F0E0808181608C9333
:103BC00048C28981893021F5A7E2B0E0E7E2F0E060
:103BD00080818F7E8C93A7E2B0E0E7E2F0E0808105
:103BE00088608C93A7E2B0E0E7E2F0E080818B7F11
:103BF0008C93A7E2B0E0E7E2F0E0808182608C93F2
:103C0000A7E2B0E0E7E2F0E0808181608C9321C21E
:103C100089818A3021F5A7E2B0E0E7E2F0E0808117
:103C20008F7E8C93A7E2B0E0E7E2F0E080818860CD
:103C30008C93A7E2B0E0E7E2F0E0808184608C93AF
:103C4000A7E2B0E0E7E2F0E080818D7F8C93A7E20D
:103C5000B0E0E7E2F0E0808181608C93FAC1898175
:103C60008B3021F5A7E2B0E0E7E2F0E080818F7EC3
:103C70008C93A7E2B0E0E7E2F0E0808188608C936B
:103C8000A7E2B0E0E7E2F0E0808184608C93A7E2F5
:103C9000B0E0E7E2F0E0808182608C93A7E2B0E0E0
:103CA000E7E2F0E0808181608C93D3C189818C3020
:103CB00021F5A7E2B0E0E7E2F0E0808180618C933B
:103CC000A7E2B0E0E7E2F0E08081877F8C93A7E293
:103CD000B0E0E7E2F0E080818B7F8C93A7E2B0E078
:103CE000E7E2F0E080818D7F8C93A7E2B0E0E7E22D
:103CF000F0E080818E7F8C93ACC189818D3021F57D
:103D0000A7E2B0E0E7E2F0E0808180618C93A7E277
:103D1000B0E0E7E2F0E08081877F8C93A7E2B0E03B
:103D2000E7E2F0E080818B7F8C93A7E2B0E0E7E2EE
:103D3000F0E0808182608C93A7E2B0E0E7E2F0E0FF
:103D400080818E7F8C9385C189818E3021F5A7E299
:103D5000B0E0E7E2F0E0808180618C93A7E2B0E020
:103D6000E7E2F0E08081877F8C93A7E2B0E0E7E2B2
:103D7000F0E080818B7F8C93A7E2B0E0E7E2F0E097
:103D8000808182608C93A7E2B0E0E7E2F0E080817E
:103D900081608C935EC189818F3021F5A7E2B0E00C
:103DA000E7E2F0E0808180618C93A7E2B0E0E7E297
:103DB000F0E08081877F8C93A7E2B0E0E7E2F0E05B
:103DC000808184608C93A7E2B0E0E7E2F0E080813C
:103DD0008D7F8C93A7E2B0E0E7E2F0E080818E7FF8
:103DE0008C9337C18981803121F5A7E2B0E0E7E209
:103DF000F0E0808180618C93A7E2B0E0E7E2F0E040
:103E00008081877F8C93A7E2B0E0E7E2F0E08081D9
:103E100084608C93A7E2B0E0E7E2F0E080818D7FE0
:103E20008C93A7E2B0E0E7E2F0E0808181608C93C0
:103E300010C18981813121F5A7E2B0E0E7E2F0E02D
:103E4000808180618C93A7E2B0E0E7E2F0E08081BE
:103E5000877F8C93A7E2B0E0E7E2F0E080818460A6
:103E60008C93A7E2B0E0E7E2F0E0808182608C937F
:103E7000A7E2B0E0E7E2F0E080818E7F8C93E9C0BA
:103E80008981823121F5A7E2B0E0E7E2F0E08081AC
:103E900080618C93A7E2B0E0E7E2F0E08081877F69
:103EA0008C93A7E2B0E0E7E2F0E0808184608C933D
:103EB000A7E2B0E0E7E2F0E0808182608C93A7E2C5
:103EC000B0E0E7E2F0E0808181608C93C2C089813C
:103ED000833121F5A7E2B0E0E7E2F0E08081806184
:103EE0008C93A7E2B0E0E7E2F0E0808188608C93F9
:103EF000A7E2B0E0E7E2F0E080818B7F8C93A7E25D
:103F0000B0E0E7E2F0E080818D7F8C93A7E2B0E043
:103F1000E7E2F0E080818E7F8C939BC089818431C1
:103F200021F5A7E2B0E0E7E2F0E0808180618C93C8
:103F3000A7E2B0E0E7E2F0E0808188608C93A7E23E
:103F4000B0E0E7E2F0E080818B7F8C93A7E2B0E005
:103F5000E7E2F0E080818D7F8C93A7E2B0E0E7E2BA
:103F6000F0E0808181608C9374C08981853121F576
:103F7000A7E2B0E0E7E2F0E0808180618C93A7E205
:103F8000B0E0E7E2F0E0808188608C93A7E2B0E0E7
:103F9000E7E2F0E080818B7F8C93A7E2B0E0E7E27C
:103FA000F0E0808182608C93A7E2B0E0E7E2F0E08D
:103FB000808181608C934DC08981863121F5A7E293
:103FC000B0E0E7E2F0E0808180618C93A7E2B0E0AE
:103FD000E7E2F0E0808188608C93A7E2B0E0E7E25E
:103FE000F0E0808184608C93A7E2B0E0E7E2F0E04B
:103FF00080818D7F8C93A7E2B0E0E7E2F0E08081E2
:104000008E7F8C9326C08981873119F5A7E2B0E0B5
:10401000E7E2F0E0808180618C93A7E2B0E0E7E224
:10402000F0E0808188608C93A7E2B0E0E7E2F0E006
:10403000808184608C93A7E2B0E0E7E2F0E08081C9
:104040008D7F8C93A7E2B0E0E7E2F0E080818160B1
:104050008C938A818823B1F4A6E2B0E0E6E2F0E036
:1040600080818B7F8C93A6E2B0E0E6E2F0E0808175
:104070008D7F8C93A6E2B0E0E6E2F0E08081816083
:104080008C9395C08A818130B1F4A6E2B0E0E6E27B
:10409000F0E080818B7F8C93A6E2B0E0E6E2F0E076
:1040A000808182608C93A6E2B0E0E6E2F0E080815D
:1040B0008E7F8C937CC08A818230B1F4A6E2B0E01E
:1040C000E6E2F0E080818B7F8C93A6E2B0E0E6E24E
:1040D000F0E0808182608C93A6E2B0E0E6E2F0E05E
:1040E000808181608C9363C08A818330B1F4A6E2C1
:1040F000B0E0E6E2F0E0808184608C93A6E2B0E07C
:10410000E6E2F0E080818D7F8C93A6E2B0E0E6E20B
:10411000F0E080818E7F8C934AC08A818430B1F434
:10412000A6E2B0E0E6E2F0E0808184608C93A6E253
:10413000B0E0E6E2F0E080818D7F8C93A6E2B0E013
:10414000E6E2F0E0808181608C9331C08A81853025
:10415000B1F4A6E2B0E0E6E2F0E0808184608C9306
:10416000A6E2B0E0E6E2F0E0808182608C93A6E215
:10417000B0E0E6E2F0E080818E7F8C9318C08A8107
:104180008630A9F4A6E2B0E0E6E2F0E08081846047
:104190008C93A6E2B0E0E6E2F0E0808182608C934E
:1041A000A6E2B0E0E6E2F0E0808181608C9381E0FD
:1041B0000F900F90CF91DF910895DF93CF9300D0B0
:1041C000CDB7DEB79A838983A6E2B0E0E6E2F0E0FD
:1041D000808180648C93E6E2F0E0808182958F702C
:1041E000882F90E0817090700097A9F3A6E2B0E06C
:1041F000E6E2F0E0808180618C9381E08093A00012
:10420000E4E2F0E08081282F30E0E5E2F0E0808118
:10421000882F90E0982F8827822B932BE981FA81B1
:104220009183808381E00F900F90CF91DF9108956B
:104230000F931F93DF93CF93CDB7DEB7C654D04013
:104240000FB6F894DEBF0FBECDBFE4E3F0E087E029
:104250008083EAE3F0E080EF8083FE01ED5BFF4FB7
:1042600080E090E0A0EFB1E480839183A283B383E8
:104270008E01015C1F4FFE01ED5BFF4F608171817C
:104280008281938120E030E04AEF54E40E941F02D3
:10429000DC01CB01F80180839183A283B383FE010B
:1042A000FF96608171818281938120E030E040E857
:1042B0005FE30E94250488232CF481E090E09EAF08
:1042C0008DAF46C0FE01FF9660817181828193812E
:1042D00020E03FEF4FE757E40E94C503181664F54E
:1042E000FE01ED5BFF4F608171818281938120E04F
:1042F00030E040E251E40E941F02DC01CB01BC012E
:10430000CD010E944900DC01CB019EAF8DAF0FC0F3
:1043100088EC90E09CAF8BAF8BAD9CAD0197F1F733
:104320009CAF8BAF8DAD9EAD01979EAF8DAF8DAD28
:104330009EAD009769F716C0FE01FF9660817181FE
:10434000828193810E944900DC01CB019EAF8DAF39
:104350008DAD9EAD9AAF89AF89AD9AAD0197F1F75A
:104360009AAF89AF82E00E94932380E090E0A0E0C2
:10437000B0E48DAB9EABAFABB8AF6DA97EA98FA9F2
:1043800098AD20E030E04AEF54E40E941F02DC01C7
:10439000CB0189AB9AABABABBCAB69A97AA98BA9B2
:1043A0009CA920E030E040E85FE30E9425048823D8
:1043B0002CF481E090E098AB8FA73FC069A97AA95F
:1043C0008BA99CA920E03FEF4FE757E40E94C5036B
:1043D00018164CF56DA97EA98FA998AD20E030E0A4
:1043E00040E251E40E941F02DC01CB01BC01CD017F
:1043F0000E944900DC01CB0198AB8FA70FC088EC6D
:1044000090E09EA78DA78DA59EA50197F1F79EA789
:104410008DA78FA598A9019798AB8FA78FA598A96D
:10442000009769F714C069A97AA98BA99CA90E9471
:104430004900DC01CB0198AB8FA78FA598A99CA759
:104440008BA78BA59CA50197F1F79CA78BA788E26A
:104450000E94932380E090E0A0E0B0E48FA398A7AF
:10446000A9A7BAA76FA178A589A59AA520E030E0F1
:104470004AEF54E40E941F02DC01CB018BA39CA3F2
:10448000ADA3BEA36BA17CA18DA19EA120E030E0D5
:1044900040E85FE30E94250488232CF481E090E04B
:1044A0009AA389A33FC06BA17CA18DA19EA120E00E
:1044B0003FEF4FE757E40E94C50318164CF56FA174
:1044C00078A589A59AA520E030E040E251E40E9459
:1044D0001F02DC01CB01BC01CD010E944900DC01BF
:1044E000CB019AA389A30FC088EC90E098A38F8F8B
:1044F0008F8D98A10197F1F798A38F8F89A19AA129
:1045000001979AA389A389A19AA1009769F714C07A
:104510006BA17CA18DA19EA10E944900DC01CB0171
:104520009AA389A389A19AA19E8F8D8F8D8D9E8D2F
:104530000197F1F79E8F8D8F8CE00E94932380E08E
:1045400090E0A0E0B0E4898F9A8FAB8FBC8F698D2B
:104550007A8D8B8D9C8D20E030E04AEF54E40E94F0
:104560001F02DC01CB018D8B9E8BAF8BB88F6D89C9
:104570007E898F89988D20E030E040E85FE30E94DB
:10458000250488232CF481E090E09C8B8B8B3FC02A
:104590006D897E898F89988D20E03FEF4FE757E442
:1045A0000E94C50318164CF5698D7A8D8B8D9C8DF4
:1045B00020E030E040E251E40E941F02DC01CB0128
:1045C000BC01CD010E944900DC01CB019C8B8B8B8F
:1045D0000FC088EC90E09A8B898B89899A89019722
:1045E000F1F79A8B898B8B899C8901979C8B8B8B9C
:1045F0008B899C89009769F714C06D897E898F89A2
:10460000988D0E944900DC01CB019C8B8B8B8B89A0
:104610009C89988B8F878F8598890197F1F7988B64
:104620008F8781E00E94932380E090E0A0EFB1E4C7
:104630008B879C87AD87BE876B857C858D859E85A6
:1046400020E030E04AEF54E40E941F02DC01CB017D
:104650008F839887A987BA876F81788589859A859E
:1046600020E030E040E85FE30E94250488232CF43A
:1046700081E090E09E838D833FC06F81788589853E
:104680009A8520E03FEF4FE757E40E94C5031816D4
:104690004CF56B857C858D859E8520E030E040E281
:1046A00051E40E941F02DC01CB01BC01CD010E943C
:1046B0004900DC01CB019E838D830FC088EC90E024
:1046C0009C838B838B819C810197F1F79C838B83E7
:1046D0008D819E8101979E838D838D819E81009720
:1046E00069F714C06F81788589859A850E94490091
:1046F000DC01CB019E838D838D819E819A8389838A
:1047000089819A810197F1F79A83898381E0CA5B55
:10471000DF4F0FB6F894DEBF0FBECDBFCF91DF9154
:104720001F910F910895DF93CF93CDB7DEB76D97AB
:104730000FB6F894DEBF0FBECDBF8D8F0E944F061F
:10474000A5E3B0E0E5E3F0E080818E7F8C93A5E304
:10475000B0E0E5E3F0E080818D7F8C93ABE3B0E0E7
:10476000EBE3F0E08081982F9F708D8D807F892B07
:104770008C93A5E3B0E0E5E3F0E0808184608C9366
:1047800080E090E0A0E0B0E4898F9A8FAB8FBC8F7F
:10479000698D7A8D8B8D9C8D20E030E04AEF54E45A
:1047A0000E941F02DC01CB018D8B9E8BAF8BB88FDB
:1047B0006D897E898F89988D20E030E040E85FE345
:1047C0000E94250488232CF481E090E09C8B8B8B45
:1047D0003FC06D897E898F89988D20E03FEF4FE73C
:1047E00057E40E94C50318164CF5698D7A8D8B8DA0
:1047F0009C8D20E030E040E251E40E941F02DC0189
:10480000CB01BC01CD010E944900DC01CB019C8B96
:104810008B8B0FC088EC90E09A8B898B89899A8961
:104820000197F1F79A8B898B8B899C8901979C8BD7
:104830008B8B8B899C89009769F714C06D897E8961
:104840008F89988D0E944900DC01CB019C8B8B8B5A
:104850008B899C89988B8F878F8598890197F1F731
:10486000988B8F87A5E3B0E0E5E3F0E080818B7F54
:104870008C93ABE3B0E0EBE3F0E08081282F2F7066
:104880008D8D882F90E082959295907F9827807FDC
:104890009827822B8C93A5E3B0E0E5E3F0E08081DC
:1048A00084608C9380E090E0A0E0B0E48B879C87EC
:1048B000AD87BE876B857C858D859E8520E030E049
:1048C0004AEF54E40E941F02DC01CB018F839887DA
:1048D000A987BA876F81788589859A8520E030E03D
:1048E00040E85FE30E94250488232CF481E090E0F7
:1048F0009E838D833FC06F81788589859A8520E06E
:104900003FEF4FE757E40E94C50318164CF56B853F
:104910007C858D859E8520E030E040E251E40E9458
:104920001F02DC01CB01BC01CD010E944900DC016A
:10493000CB019E838D830FC088EC90E09C838B839A
:104940008B819C810197F1F79C838B838D819E8164
:1049500001979E838D838D819E81009769F714C096
:104960006F81788589859A850E944900DC01CB0199
:104970009E838D838D819E819A83898389819A818B
:104980000197F1F79A838983A5E3B0E0E5E3F0E0CE
:1049900080818B7F8C9381E06D960FB6F894DEBF9B
:1049A0000FBECDBFCF91DF910895DF93CF93CDB7E9
:1049B000DEB76D970FB6F894DEBF0FBECDBF8D8FFB
:1049C0000E944F06A5E3B0E0E5E3F0E0808181605E
:1049D0008C93A5E3B0E0E5E3F0E080818D7F8C93DC
:1049E000ABE3B0E0EBE3F0E08081982F9F708D8D1A
:1049F000807F892B8C93A5E3B0E0E5E3F0E0808134
:104A000084608C9380E090E0A0E0B0E4898F9A8F7E
:104A1000AB8FBC8F698D7A8D8B8D9C8D20E030E0C3
:104A20004AEF54E40E941F02DC01CB018D8B9E8B68
:104A3000AF8BB88F6D897E898F89988D20E030E0AB
:104A400040E85FE30E94250488232CF481E090E095
:104A50009C8B8B8B3FC06D897E898F89988D20E0E0
:104A60003FEF4FE757E40E94C50318164CF5698DD8
:104A70007A8D8B8D9C8D20E030E040E251E40E94E5
:104A80001F02DC01CB01BC01CD010E944900DC0109
:104A9000CB019C8B8B8B0FC088EC90E09A8B898B21
:104AA00089899A890197F1F79A8B898B8B899C89DF
:104AB00001979C8B8B8B8B899C89009769F714C01D
:104AC0006D897E898F89988D0E944900DC01CB0118
:104AD0009C8B8B8B8B899C89988B8F878F859889F2
:104AE0000197F1F7988B8F87A5E3B0E0E5E3F0E05D
:104AF00080818B7F8C93ABE3B0E0EBE3F0E08081CF
:104B0000282F2F708D8D882F90E082959295907F21
:104B10009827807F9827822B8C93A5E3B0E0E5E36C
:104B2000F0E0808184608C9380E090E0A0E0B0E4CD
:104B30008B879C87AD87BE876B857C858D859E85A1
:104B400020E030E04AEF54E40E941F02DC01CB0178
:104B50008F839887A987BA876F81788589859A8599
:104B600020E030E040E85FE30E94250488232CF435
:104B700081E090E09E838D833FC06F817885898539
:104B80009A8520E03FEF4FE757E40E94C5031816CF
:104B90004CF56B857C858D859E8520E030E040E27C
:104BA00051E40E941F02DC01CB01BC01CD010E9437
:104BB0004900DC01CB019E838D830FC088EC90E01F
:104BC0009C838B838B819C810197F1F79C838B83E2
:104BD0008D819E8101979E838D838D819E8100971B
:104BE00069F714C06F81788589859A850E9449008C
:104BF000DC01CB019E838D838D819E819A83898385
:104C000089819A810197F1F79A838983A5E3B0E0BE
:104C1000E5E3F0E080818B7F8C9381E06D960FB6A9
:104C2000F894DEBF0FBECDBFCF91DF910895DF9323
:104C3000CF93CDB7DEB76B970FB6F894DEBF0FBE3C
:104C4000CDBF9B8F8A8F198ECCC0898D282F30E0E5
:104C50008A8D9B8DFC01E20FF31F80810E94D52479
:104C6000898D8F5F898F80E090E0A0EAB2E48D8B20
:104C70009E8BAF8BB88F6D897E898F89988D2BEA3B
:104C80003AEA4AE250E40E941F02DC01CB01898B20
:104C90009A8BAB8BBC8B69897A898B899C8920E044
:104CA00030E040E85FE30E94250488231CF481E0A3
:104CB000888B91C069897A898B899C8920E030E052
:104CC0004FE753E40E94C50318160CF07BC06D89B2
:104CD0007E898F89988D20E030E04AE754E40E9475
:104CE0001903DC01CB018C879D87AE87BF876C855C
:104CF0007D858E859F8520E030E04AEF54E40E9458
:104D00001F02DC01CB0188879987AA87BB8768854A
:104D100079858A859B8520E030E040E85FE30E944A
:104D2000250488232CF481E090E09F838E833FC08C
:104D3000688579858A859B8520E03FEF4FE757E4BA
:104D40000E94C50318164CF56C857D858E859F8560
:104D500020E030E040E251E40E941F02DC01CB0180
:104D6000BC01CD010E944900DC01CB019F838E83F1
:104D70000FC088EC90E09D838C838C819D8101978E
:104D8000F1F79D838C838E819F8101979F838E8312
:104D90008E819F81009769F724C0688579858A850F
:104DA0009B850E944900DC01CB019F838E838E810D
:104DB0009F819B838A838A819B810197F1F79B83E3
:104DC0008A830FC069897A898B899C890E944900EE
:104DD000DC01CB01888B8889898389818A95F1F7E9
:104DE0008983898D282F30E08A8D9B8DFC01E20F0D
:104DF000F31F8081882309F028CF81E06B960FB6DE
:104E0000F894DEBF0FBECDBFCF91DF910895DF9341
:104E1000CF93CDB7DEB766970FB6F894DEBF0FBE5F
:104E2000CDBF6D877E878F87988B2DB73EB73E8B22
:104E30002D8B81E08A878D859E85AF85B8898E838D
:104E40009F83A887B9878D859E85AF85B889009790
:104E5000A105B10521F480E30E94D52497C08DB748
:104E60009EB79A8B898B15C08E819F81A885B98545
:104E70002AE030E040E050E0BC01CD010E94792AF8
:104E8000DA01C9018E839F83A887B9878A858F5FDE
:104E90008A878E819F81A885B9858A309105A10571
:104EA000B10510F78A85992787FD90952DB73EB7F4
:104EB000281B390B0FB6F8943EBF0FBE2DBF8DB720
:104EC0009EB701969C8B8B8B8B899C8900969C8BC3
:104ED0008B8B2B893C893C872B87198235C08D852C
:104EE0009E85AF85B8892AE030E040E050E0BC0103
:104EF000CD010E94792ADC01CB018A839B83AC839C
:104F0000BD838981282F332727FD30958A81482F3B
:104F1000405D8B859C85FC01E20FF31F40838D85EE
:104F20009E85AF85B8892AE030E040E050E0BC01C2
:104F3000CD010E94792ADA01C9018D879E87AF874A
:104F4000B88B89818F5F898399818A8598173CF214
:104F50008A858150898310C08981282F332727FDB6
:104F600030958B859C85FC01E20FF31F80810E94A8
:104F7000D524898181508983898188236CF7898927
:104F80009A890FB6F8949EBF0FBE8DBF81E02D8920
:104F90003E890FB6F8943EBF0FBE2DBF66960FB682
:104FA000F894DEBF0FBECDBFCF91DF910895DF93A0
:104FB000CF9300D0CDB7DEB789836A838A818130F1
:104FC00029F4898180580E94932307C08A81823006
:104FD00021F4898180540E94932381E00F900F90E7
:104FE000CF91DF910895DF93CF930F92CDB7DEB7C6
:104FF0000E944F0684E0898307C0898161E00E9496
:105000006B1489818F5F898389818730B0F381E058
:105010000F90CF91DF910895DF93CF93CDB7DEB797
:1050200063970FB6F894DEBF0FBECDBF9B8B8A8B04
:10503000EA89FB898AEF80831F86A7C08F858C5FF2
:1050400060E00E946B14188A94C09E012F5E3F4F4F
:105050008889B9010E94B1178989882309F086C01F
:105060008889282F30E08F85482F50E0C901880FAC
:10507000991F820F931F840F951FFC01E258FF4F69
:105080008081EA89FB89808380E090E0A6E9B3E42F
:105090008B879C87AD87BE876B857C858D859E853C
:1050A00020E030E04AEF54E40E941F02DC01CB0113
:1050B0008F839887A987BA876F81788589859A8534
:1050C00020E030E040E85FE30E94250488232CF4D0
:1050D00081E090E09E838D833FC06F8178858985D4
:1050E0009A8520E03FEF4FE757E40E94C50318166A
:1050F0004CF56B857C858D859E8520E030E040E217
:1051000051E40E941F02DC01CB01BC01CD010E94D1
:105110004900DC01CB019E838D830FC088EC90E0B9
:105120009C838B838B819C810197F1F79C838B837C
:105130008D819E8101979E838D838D819E810097B5
:1051400069F714C06F81788589859A850E94490026
:10515000DC01CB019E838D838D819E819A8389831F
:1051600089819A810197F1F79A83898388898F5F72
:10517000888B8889843008F468CF8F858C5F61E0E4
:105180000E946B148F858F5F8F878F85833008F423
:1051900055CF81E063960FB6F894DEBF0FBECDBF4A
:1051A000CF91DF910895DF93CF93CDB7DEB76F979F
:1051B0000FB6F894DEBF0FBECDBF0E94182180E06D
:1051C00061E040E020E00E94E21B80E060E00E949D
:1051D0007B1C0E94F3271A8A81E0898B188A8AEF48
:1051E0008F8F1F86A4E3B0E0E4E3F0E08081806865
:1051F0008C9380E690E09E878D8787E690E09C8781
:105200008B878B859C850E9417267BC0CE014F968D
:105210000E940C288F8D8A878F8D8A3F09F471C078
:105220008A85853481F58A89815089878985282FE7
:1052300030E0CE014D96FC01E20FF31F9081898989
:10524000989F902D11248889890F888B8989882FB0
:1052500090E09C01220F331FC901880F991F880F0E
:10526000991F820F931F898B8F858F5F8F87898509
:10527000882321F0898581508987D8CF80E062E03A
:105280000E94D7273EC08A898823D9F48A85803333
:1052900059F41D8E8D8D882F90E0A0E0B0E0BC0108
:1052A000CD010E9407272AC08A8580538D8F8D8D5E
:1052B000882F90E0A0E0B0E0BC01CD010E9407275C
:1052C0001DC08A898130D1F48A85803359F41E8EBD
:1052D0008E8D882F90E0A0E0B0E0BC01CD010E944F
:1052E00007270CC08A8580538E8F8E8D882F90E083
:1052F000A0E0B0E0BC01CD010E9407278A898F5F42
:105300008A8B8F85882309F481CF8F858230C9F7F6
:1053100051C0A5E3B0E0E5E3F0E080818F778C93A6
:1053200080E062E00E94D7278D859E850E94172627
:10533000CE014B960E94DD208B8D9C8DCC01A0E090
:10534000B0E08D839E83AF83B8878D819E81AF81CE
:10535000B88528E833E140E050E0BC01CD010E946F
:105360005A2ADC01CB01072E7AE0B695A7959795CE
:1053700087957A95D1F7702D8F8B988FA98FBA8FDB
:105380008F89988DA98DBA8D2AE030E040E050E0F9
:10539000BC01CD010E94792ADA01C9018B8B9C8B5B
:1053A000AD8BBE8B8B899C89AD89BE89BC01CD013B
:1053B0000E9407278889282F30E040E050E08B8941
:1053C0009C89AD89BE8982179307A407B50708F4A5
:1053D000A0CF8889282F30E040E050E08B899C895D
:1053E000AD89BE8982179307A407B50708F489CF52
:1053F00051C0A5E3B0E0E5E3F0E0808180688C93E4
:1054000080E062E00E94D7278D859E850E94172646
:10541000CE014B960E94DD208B8D9C8DCC01A0E0AF
:10542000B0E089839A83AB83BC8389819A81AB8105
:10543000BC8128E833E140E050E0BC01CD010E948E
:105440005A2ADC01CB01072E7AE0B695A7959795ED
:1054500087957A95D1F7702D8F8B988FA98FBA8FFA
:105460008F89988DA98DBA8D2AE030E040E050E018
:10547000BC01CD010E94792ADA01C9018B8B9C8B7A
:10548000AD8BBE8B8B899C89AD89BE89BC01CD015A
:105490000E9407278889282F30E040E050E08B8960
:1054A0009C89AD89BE8982179307A407B50708F0C8
:1054B000A0CF27CF629FD001739FF001829FE00DA4
:1054C000F11D649FE00DF11D929FF00D839FF00D83
:1054D000749FF00D659FF00D9927729FB00DE11D2F
:1054E000F91F639FB00DE11DF91FBD01CF0111240C
:1054F0000895A1E21A2EAA1BBB1BFD010DC0AA1F15
:10550000BB1FEE1FFF1FA217B307E407F50720F02C
:10551000A21BB30BE40BF50B661F771F881F991FA7
:105520001A9469F760957095809590959B01AC01F0
:10553000BD01CF0108952F923F924F925F926F92DB
:105540007F928F929F92AF92BF92CF92DF92EF9213
:10555000FF920F931F93CF93DF93CDB7DEB7CA1B94
:10556000DB0B0FB6F894DEBF0FBECDBF09942A88BF
:10557000398848885F846E847D848C849B84AA8467
:10558000B984C884DF80EE80FD800C811B81AA81F4
:10559000B981CE0FD11D0FB6F894DEBF0FBECDBFBF
:0855A000ED010895F894FFCF1E
:1055A80054656D70203A00416C6C6F7765642074A7
:1055B800656D70203A0000000000000000003132E4
:1055C800333435363738394330451800011900016E
:1055D8001A00011B00011C01001D01001E01000032
:00000001FF
